{
  "_format": "hh-sol-artifact-1",
  "contractName": "NFTX",
  "sourceName": "contracts/NFTX.sol",
  "abi": [
    {
      "inputs": [
        {
          "internalType": "string",
          "name": "initBaseURI",
          "type": "string"
        }
      ],
      "stateMutability": "nonpayable",
      "type": "constructor"
    },
    {
      "inputs": [],
      "name": "ApprovalCallerNotOwnerNorApproved",
      "type": "error"
    },
    {
      "inputs": [],
      "name": "ApprovalQueryForNonexistentToken",
      "type": "error"
    },
    {
      "inputs": [],
      "name": "ApprovalToCurrentOwner",
      "type": "error"
    },
    {
      "inputs": [],
      "name": "ApproveToCaller",
      "type": "error"
    },
    {
      "inputs": [],
      "name": "BalanceQueryForZeroAddress",
      "type": "error"
    },
    {
      "inputs": [],
      "name": "MintToZeroAddress",
      "type": "error"
    },
    {
      "inputs": [],
      "name": "MintZeroQuantity",
      "type": "error"
    },
    {
      "inputs": [],
      "name": "OwnerQueryForNonexistentToken",
      "type": "error"
    },
    {
      "inputs": [],
      "name": "TransferCallerNotOwnerNorApproved",
      "type": "error"
    },
    {
      "inputs": [],
      "name": "TransferFromIncorrectOwner",
      "type": "error"
    },
    {
      "inputs": [],
      "name": "TransferToNonERC721ReceiverImplementer",
      "type": "error"
    },
    {
      "inputs": [],
      "name": "TransferToZeroAddress",
      "type": "error"
    },
    {
      "inputs": [],
      "name": "URIQueryForNonexistentToken",
      "type": "error"
    },
    {
      "anonymous": false,
      "inputs": [
        {
          "indexed": true,
          "internalType": "address",
          "name": "owner",
          "type": "address"
        },
        {
          "indexed": true,
          "internalType": "address",
          "name": "approved",
          "type": "address"
        },
        {
          "indexed": true,
          "internalType": "uint256",
          "name": "tokenId",
          "type": "uint256"
        }
      ],
      "name": "Approval",
      "type": "event"
    },
    {
      "anonymous": false,
      "inputs": [
        {
          "indexed": true,
          "internalType": "address",
          "name": "owner",
          "type": "address"
        },
        {
          "indexed": true,
          "internalType": "address",
          "name": "operator",
          "type": "address"
        },
        {
          "indexed": false,
          "internalType": "bool",
          "name": "approved",
          "type": "bool"
        }
      ],
      "name": "ApprovalForAll",
      "type": "event"
    },
    {
      "anonymous": false,
      "inputs": [
        {
          "indexed": false,
          "internalType": "string",
          "name": "newBaseURI",
          "type": "string"
        }
      ],
      "name": "BaseURIChanged",
      "type": "event"
    },
    {
      "anonymous": false,
      "inputs": [
        {
          "indexed": false,
          "internalType": "address",
          "name": "minter",
          "type": "address"
        },
        {
          "indexed": false,
          "internalType": "uint256",
          "name": "amount",
          "type": "uint256"
        }
      ],
      "name": "Minted",
      "type": "event"
    },
    {
      "anonymous": false,
      "inputs": [
        {
          "indexed": true,
          "internalType": "address",
          "name": "previousOwner",
          "type": "address"
        },
        {
          "indexed": true,
          "internalType": "address",
          "name": "newOwner",
          "type": "address"
        }
      ],
      "name": "OwnershipTransferred",
      "type": "event"
    },
    {
      "anonymous": false,
      "inputs": [
        {
          "indexed": false,
          "internalType": "enum NFTX.Status",
          "name": "status",
          "type": "uint8"
        }
      ],
      "name": "StatusChanged",
      "type": "event"
    },
    {
      "anonymous": false,
      "inputs": [
        {
          "indexed": true,
          "internalType": "address",
          "name": "from",
          "type": "address"
        },
        {
          "indexed": true,
          "internalType": "address",
          "name": "to",
          "type": "address"
        },
        {
          "indexed": true,
          "internalType": "uint256",
          "name": "tokenId",
          "type": "uint256"
        }
      ],
      "name": "Transfer",
      "type": "event"
    },
    {
      "inputs": [],
      "name": "MAX_MINT_PER_ADDR",
      "outputs": [
        {
          "internalType": "uint256",
          "name": "",
          "type": "uint256"
        }
      ],
      "stateMutability": "view",
      "type": "function"
    },
    {
      "inputs": [],
      "name": "MAX_SUPPLY",
      "outputs": [
        {
          "internalType": "uint256",
          "name": "",
          "type": "uint256"
        }
      ],
      "stateMutability": "view",
      "type": "function"
    },
    {
      "inputs": [],
      "name": "PRICE",
      "outputs": [
        {
          "internalType": "uint256",
          "name": "",
          "type": "uint256"
        }
      ],
      "stateMutability": "view",
      "type": "function"
    },
    {
      "inputs": [
        {
          "internalType": "address",
          "name": "to",
          "type": "address"
        },
        {
          "internalType": "uint256",
          "name": "tokenId",
          "type": "uint256"
        }
      ],
      "name": "approve",
      "outputs": [],
      "stateMutability": "nonpayable",
      "type": "function"
    },
    {
      "inputs": [
        {
          "internalType": "address",
          "name": "owner",
          "type": "address"
        }
      ],
      "name": "balanceOf",
      "outputs": [
        {
          "internalType": "uint256",
          "name": "",
          "type": "uint256"
        }
      ],
      "stateMutability": "view",
      "type": "function"
    },
    {
      "inputs": [],
      "name": "baseURI",
      "outputs": [
        {
          "internalType": "string",
          "name": "",
          "type": "string"
        }
      ],
      "stateMutability": "view",
      "type": "function"
    },
    {
      "inputs": [
        {
          "internalType": "uint256",
          "name": "tokenId",
          "type": "uint256"
        }
      ],
      "name": "getApproved",
      "outputs": [
        {
          "internalType": "address",
          "name": "",
          "type": "address"
        }
      ],
      "stateMutability": "view",
      "type": "function"
    },
    {
      "inputs": [
        {
          "internalType": "address",
          "name": "owner",
          "type": "address"
        },
        {
          "internalType": "address",
          "name": "operator",
          "type": "address"
        }
      ],
      "name": "isApprovedForAll",
      "outputs": [
        {
          "internalType": "bool",
          "name": "",
          "type": "bool"
        }
      ],
      "stateMutability": "view",
      "type": "function"
    },
    {
      "inputs": [
        {
          "internalType": "uint256",
          "name": "quantity",
          "type": "uint256"
        }
      ],
      "name": "mint",
      "outputs": [],
      "stateMutability": "payable",
      "type": "function"
    },
    {
      "inputs": [],
      "name": "name",
      "outputs": [
        {
          "internalType": "string",
          "name": "",
          "type": "string"
        }
      ],
      "stateMutability": "view",
      "type": "function"
    },
    {
      "inputs": [
        {
          "internalType": "address",
          "name": "owner",
          "type": "address"
        }
      ],
      "name": "numberMinted",
      "outputs": [
        {
          "internalType": "uint256",
          "name": "",
          "type": "uint256"
        }
      ],
      "stateMutability": "view",
      "type": "function"
    },
    {
      "inputs": [],
      "name": "owner",
      "outputs": [
        {
          "internalType": "address",
          "name": "",
          "type": "address"
        }
      ],
      "stateMutability": "view",
      "type": "function"
    },
    {
      "inputs": [
        {
          "internalType": "uint256",
          "name": "tokenId",
          "type": "uint256"
        }
      ],
      "name": "ownerOf",
      "outputs": [
        {
          "internalType": "address",
          "name": "",
          "type": "address"
        }
      ],
      "stateMutability": "view",
      "type": "function"
    },
    {
      "inputs": [],
      "name": "renounceOwnership",
      "outputs": [],
      "stateMutability": "nonpayable",
      "type": "function"
    },
    {
      "inputs": [
        {
          "internalType": "address",
          "name": "from",
          "type": "address"
        },
        {
          "internalType": "address",
          "name": "to",
          "type": "address"
        },
        {
          "internalType": "uint256",
          "name": "tokenId",
          "type": "uint256"
        }
      ],
      "name": "safeTransferFrom",
      "outputs": [],
      "stateMutability": "nonpayable",
      "type": "function"
    },
    {
      "inputs": [
        {
          "internalType": "address",
          "name": "from",
          "type": "address"
        },
        {
          "internalType": "address",
          "name": "to",
          "type": "address"
        },
        {
          "internalType": "uint256",
          "name": "tokenId",
          "type": "uint256"
        },
        {
          "internalType": "bytes",
          "name": "_data",
          "type": "bytes"
        }
      ],
      "name": "safeTransferFrom",
      "outputs": [],
      "stateMutability": "nonpayable",
      "type": "function"
    },
    {
      "inputs": [
        {
          "internalType": "address",
          "name": "operator",
          "type": "address"
        },
        {
          "internalType": "bool",
          "name": "approved",
          "type": "bool"
        }
      ],
      "name": "setApprovalForAll",
      "outputs": [],
      "stateMutability": "nonpayable",
      "type": "function"
    },
    {
      "inputs": [
        {
          "internalType": "string",
          "name": "newBaseURI",
          "type": "string"
        }
      ],
      "name": "setBaseURI",
      "outputs": [],
      "stateMutability": "nonpayable",
      "type": "function"
    },
    {
      "inputs": [
        {
          "internalType": "enum NFTX.Status",
          "name": "_status",
          "type": "uint8"
        }
      ],
      "name": "setStatus",
      "outputs": [],
      "stateMutability": "nonpayable",
      "type": "function"
    },
    {
      "inputs": [],
      "name": "status",
      "outputs": [
        {
          "internalType": "enum NFTX.Status",
          "name": "",
          "type": "uint8"
        }
      ],
      "stateMutability": "view",
      "type": "function"
    },
    {
      "inputs": [
        {
          "internalType": "bytes4",
          "name": "interfaceId",
          "type": "bytes4"
        }
      ],
      "name": "supportsInterface",
      "outputs": [
        {
          "internalType": "bool",
          "name": "",
          "type": "bool"
        }
      ],
      "stateMutability": "view",
      "type": "function"
    },
    {
      "inputs": [],
      "name": "symbol",
      "outputs": [
        {
          "internalType": "string",
          "name": "",
          "type": "string"
        }
      ],
      "stateMutability": "view",
      "type": "function"
    },
    {
      "inputs": [
        {
          "internalType": "uint256",
          "name": "tokenId",
          "type": "uint256"
        }
      ],
      "name": "tokenURI",
      "outputs": [
        {
          "internalType": "string",
          "name": "",
          "type": "string"
        }
      ],
      "stateMutability": "view",
      "type": "function"
    },
    {
      "inputs": [],
      "name": "totalSupply",
      "outputs": [
        {
          "internalType": "uint256",
          "name": "",
          "type": "uint256"
        }
      ],
      "stateMutability": "view",
      "type": "function"
    },
    {
      "inputs": [
        {
          "internalType": "address",
          "name": "from",
          "type": "address"
        },
        {
          "internalType": "address",
          "name": "to",
          "type": "address"
        },
        {
          "internalType": "uint256",
          "name": "tokenId",
          "type": "uint256"
        }
      ],
      "name": "transferFrom",
      "outputs": [],
      "stateMutability": "nonpayable",
      "type": "function"
    },
    {
      "inputs": [
        {
          "internalType": "address",
          "name": "newOwner",
          "type": "address"
        }
      ],
      "name": "transferOwnership",
      "outputs": [],
      "stateMutability": "nonpayable",
      "type": "function"
    },
    {
      "inputs": [
        {
          "internalType": "address payable",
          "name": "recipient",
          "type": "address"
        }
      ],
      "name": "withdraw",
      "outputs": [],
      "stateMutability": "nonpayable",
      "type": "function"
    }
  ],
  "bytecode": "0x60806040523480156200001157600080fd5b5060405162003ca638038062003ca6833981810160405281019062000037919062000322565b6040518060400160405280600481526020017f4e465458000000000000000000000000000000000000000000000000000000008152506040518060400160405280600481526020017f4e465458000000000000000000000000000000000000000000000000000000008152508160029080519060200190620000bb92919062000200565b508060039080519060200190620000d492919062000200565b50620000e56200012d60201b60201c565b60008190555050506200010d620001016200013260201b60201c565b6200013a60201b60201c565b80600990805190602001906200012592919062000200565b5050620004d7565b600090565b600033905090565b6000600860009054906101000a900473ffffffffffffffffffffffffffffffffffffffff16905081600860006101000a81548173ffffffffffffffffffffffffffffffffffffffff021916908373ffffffffffffffffffffffffffffffffffffffff1602179055508173ffffffffffffffffffffffffffffffffffffffff168173ffffffffffffffffffffffffffffffffffffffff167f8be0079c531659141344cd1fd0a4f28419497f9722a3daafe3b4186f6b6457e060405160405180910390a35050565b8280546200020e90620003fc565b90600052602060002090601f0160209004810192826200023257600085556200027e565b82601f106200024d57805160ff19168380011785556200027e565b828001600101855582156200027e579182015b828111156200027d57825182559160200191906001019062000260565b5b5090506200028d919062000291565b5090565b5b80821115620002ac57600081600090555060010162000292565b5090565b6000620002c7620002c18462000390565b62000367565b905082815260208101848484011115620002e057600080fd5b620002ed848285620003c6565b509392505050565b600082601f8301126200030757600080fd5b815162000319848260208601620002b0565b91505092915050565b6000602082840312156200033557600080fd5b600082015167ffffffffffffffff8111156200035057600080fd5b6200035e84828501620002f5565b91505092915050565b60006200037362000386565b905062000381828262000432565b919050565b6000604051905090565b600067ffffffffffffffff821115620003ae57620003ad62000497565b5b620003b982620004c6565b9050602081019050919050565b60005b83811015620003e6578082015181840152602081019050620003c9565b83811115620003f6576000848401525b50505050565b600060028204905060018216806200041557607f821691505b602082108114156200042c576200042b62000468565b5b50919050565b6200043d82620004c6565b810181811067ffffffffffffffff821117156200045f576200045e62000497565b5b80604052505050565b7f4e487b7100000000000000000000000000000000000000000000000000000000600052602260045260246000fd5b7f4e487b7100000000000000000000000000000000000000000000000000000000600052604160045260246000fd5b6000601f19601f8301169050919050565b6137bf80620004e76000396000f3fe60806040526004361061019c5760003560e01c80636352211e116100ec578063a0712d681161008a578063c87b56dd11610064578063c87b56dd14610593578063dc33e681146105d0578063e985e9c51461060d578063f2fde38b1461064a5761019c565b8063a0712d6814610525578063a22cb46514610541578063b88d4fde1461056a5761019c565b8063715018a6116100c6578063715018a61461048d5780638d859f3e146104a45780638da5cb5b146104cf57806395d89b41146104fa5761019c565b80636352211e146103e85780636c0360eb1461042557806370a08231146104505761019c565b8063200d2ed21161015957806332cb6b0c1161013357806332cb6b0c1461034257806342842e0e1461036d57806351cff8d91461039657806355f804b3146103bf5761019c565b8063200d2ed2146102c557806323b872dd146102f05780632e49d78b146103195761019c565b806301ffc9a7146101a157806306fdde03146101de578063081812fc14610209578063095ea7b314610246578063161548621461026f57806318160ddd1461029a575b600080fd5b3480156101ad57600080fd5b506101c860048036038101906101c39190612c26565b610673565b6040516101d5919061301f565b60405180910390f35b3480156101ea57600080fd5b506101f3610755565b6040516102009190613079565b60405180910390f35b34801561021557600080fd5b50610230600480360381019061022b9190612ce6565b6107e7565b60405161023d9190612f8f565b60405180910390f35b34801561025257600080fd5b5061026d60048036038101906102689190612bea565b610863565b005b34801561027b57600080fd5b50610284610968565b604051610291919061319b565b60405180910390f35b3480156102a657600080fd5b506102af61096d565b6040516102bc919061319b565b60405180910390f35b3480156102d157600080fd5b506102da610984565b6040516102e7919061303a565b60405180910390f35b3480156102fc57600080fd5b5061031760048036038101906103129190612ae4565b610997565b005b34801561032557600080fd5b50610340600480360381019061033b9190612c78565b6109a7565b005b34801561034e57600080fd5b50610357610a48565b604051610364919061319b565b60405180910390f35b34801561037957600080fd5b50610394600480360381019061038f9190612ae4565b610a4d565b005b3480156103a257600080fd5b506103bd60048036038101906103b89190612a7f565b610a6d565b005b3480156103cb57600080fd5b506103e660048036038101906103e19190612ca1565b610b2b565b005b3480156103f457600080fd5b5061040f600480360381019061040a9190612ce6565b610b82565b60405161041c9190612f8f565b60405180910390f35b34801561043157600080fd5b5061043a610b98565b6040516104479190613079565b60405180910390f35b34801561045c57600080fd5b5061047760048036038101906104729190612a56565b610c26565b604051610484919061319b565b60405180910390f35b34801561049957600080fd5b506104a2610cf6565b005b3480156104b057600080fd5b506104b9610d0a565b6040516104c6919061319b565b60405180910390f35b3480156104db57600080fd5b506104e4610d15565b6040516104f19190612f8f565b60405180910390f35b34801561050657600080fd5b5061050f610d3f565b60405161051c9190613079565b60405180910390f35b61053f600480360381019061053a9190612ce6565b610dd1565b005b34801561054d57600080fd5b5061056860048036038101906105639190612bae565b61100f565b005b34801561057657600080fd5b50610591600480360381019061058c9190612b33565b611187565b005b34801561059f57600080fd5b506105ba60048036038101906105b59190612ce6565b6111ff565b6040516105c79190613079565b60405180910390f35b3480156105dc57600080fd5b506105f760048036038101906105f29190612a56565b61129e565b604051610604919061319b565b60405180910390f35b34801561061957600080fd5b50610634600480360381019061062f9190612aa8565b6112b0565b604051610641919061301f565b60405180910390f35b34801561065657600080fd5b50610671600480360381019061066c9190612a56565b611344565b005b60007f80ac58cd000000000000000000000000000000000000000000000000000000007bffffffffffffffffffffffffffffffffffffffffffffffffffffffff1916827bffffffffffffffffffffffffffffffffffffffffffffffffffffffff1916148061073e57507f5b5e139f000000000000000000000000000000000000000000000000000000007bffffffffffffffffffffffffffffffffffffffffffffffffffffffff1916827bffffffffffffffffffffffffffffffffffffffffffffffffffffffff1916145b8061074e575061074d826113c8565b5b9050919050565b6060600280546107649061342b565b80601f01602080910402602001604051908101604052809291908181526020018280546107909061342b565b80156107dd5780601f106107b2576101008083540402835291602001916107dd565b820191906000526020600020905b8154815290600101906020018083116107c057829003601f168201915b5050505050905090565b60006107f282611432565b610828576040517fcf4700e400000000000000000000000000000000000000000000000000000000815260040160405180910390fd5b6006600083815260200190815260200160002060009054906101000a900473ffffffffffffffffffffffffffffffffffffffff169050919050565b600061086e82610b82565b90508073ffffffffffffffffffffffffffffffffffffffff168373ffffffffffffffffffffffffffffffffffffffff1614156108d6576040517f943f7b8c00000000000000000000000000000000000000000000000000000000815260040160405180910390fd5b8073ffffffffffffffffffffffffffffffffffffffff166108f5611480565b73ffffffffffffffffffffffffffffffffffffffff1614610958576109218161091c611480565b6112b0565b610957576040517fcfb3b94200000000000000000000000000000000000000000000000000000000815260040160405180910390fd5b5b610963838383611488565b505050565b600281565b600061097761153a565b6001546000540303905090565b600860149054906101000a900460ff1681565b6109a283838361153f565b505050565b6109af6119f5565b80600860146101000a81548160ff021916908360028111156109fa577f4e487b7100000000000000000000000000000000000000000000000000000000600052602160045260246000fd5b02179055507fafa725e7f44cadb687a7043853fa1a7e7b8f0da74ce87ec546e9420f04da8c1e600860149054906101000a900460ff16604051610a3d919061303a565b60405180910390a150565b606f81565b610a6883838360405180602001604052806000815250611187565b505050565b610a756119f5565b600047905060008273ffffffffffffffffffffffffffffffffffffffff1682604051610aa090612f7a565b60006040518083038185875af1925050503d8060008114610add576040519150601f19603f3d011682016040523d82523d6000602084013e610ae2565b606091505b5050905080610b26576040517f08c379a0000000000000000000000000000000000000000000000000000000008152600401610b1d9061315b565b60405180910390fd5b505050565b610b336119f5565b818160099190610b4492919061282b565b507f5411e8ebf1636d9e83d5fc4900bf80cbac82e8790da2a4c94db4895e889eedf68282604051610b76929190613055565b60405180910390a15050565b6000610b8d82611a73565b600001519050919050565b60098054610ba59061342b565b80601f0160208091040260200160405190810160405280929190818152602001828054610bd19061342b565b8015610c1e5780601f10610bf357610100808354040283529160200191610c1e565b820191906000526020600020905b815481529060010190602001808311610c0157829003601f168201915b505050505081565b60008073ffffffffffffffffffffffffffffffffffffffff168273ffffffffffffffffffffffffffffffffffffffff161415610c8e576040517f8f4eb60400000000000000000000000000000000000000000000000000000000815260040160405180910390fd5b600560008373ffffffffffffffffffffffffffffffffffffffff1673ffffffffffffffffffffffffffffffffffffffff16815260200190815260200160002060000160009054906101000a900467ffffffffffffffff1667ffffffffffffffff169050919050565b610cfe6119f5565b610d086000611cfe565b565b662386f26fc1000081565b6000600860009054906101000a900473ffffffffffffffffffffffffffffffffffffffff16905090565b606060038054610d4e9061342b565b80601f0160208091040260200160405190810160405280929190818152602001828054610d7a9061342b565b8015610dc75780601f10610d9c57610100808354040283529160200191610dc7565b820191906000526020600020905b815481529060010190602001808311610daa57829003601f168201915b5050505050905090565b60016002811115610e0b577f4e487b7100000000000000000000000000000000000000000000000000000000600052602160045260246000fd5b600860149054906101000a900460ff166002811115610e53577f4e487b7100000000000000000000000000000000000000000000000000000000600052602160045260246000fd5b14610e93576040517f08c379a0000000000000000000000000000000000000000000000000000000008152600401610e8a906130bb565b60405180910390fd5b3373ffffffffffffffffffffffffffffffffffffffff163273ffffffffffffffffffffffffffffffffffffffff1614610f01576040517f08c379a0000000000000000000000000000000000000000000000000000000008152600401610ef89061311b565b60405180910390fd5b600281610f0d3361129e565b610f17919061325a565b1115610f58576040517f08c379a0000000000000000000000000000000000000000000000000000000008152600401610f4f906130db565b60405180910390fd5b606f81610f6361096d565b610f6d919061325a565b1115610fae576040517f08c379a0000000000000000000000000000000000000000000000000000000008152600401610fa5906130fb565b60405180910390fd5b610fb83382611dc4565b610fd381662386f26fc10000610fce91906132b0565b611de2565b7f30385c845b448a36257a6a1716e6ad2e1bc2cbe333cde1e69fe849ad6511adfe3382604051611004929190612ff6565b60405180910390a150565b611017611480565b73ffffffffffffffffffffffffffffffffffffffff168273ffffffffffffffffffffffffffffffffffffffff16141561107c576040517fb06307db00000000000000000000000000000000000000000000000000000000815260040160405180910390fd5b8060076000611089611480565b73ffffffffffffffffffffffffffffffffffffffff1673ffffffffffffffffffffffffffffffffffffffff16815260200190815260200160002060008473ffffffffffffffffffffffffffffffffffffffff1673ffffffffffffffffffffffffffffffffffffffff16815260200190815260200160002060006101000a81548160ff0219169083151502179055508173ffffffffffffffffffffffffffffffffffffffff16611136611480565b73ffffffffffffffffffffffffffffffffffffffff167f17307eab39ab6107e8899845ad3d59bd9653f200f220920489ca2b5937696c318360405161117b919061301f565b60405180910390a35050565b61119284848461153f565b6111b18373ffffffffffffffffffffffffffffffffffffffff16611e83565b156111f9576111c284848484611ea6565b6111f8576040517fd1a57ed600000000000000000000000000000000000000000000000000000000815260040160405180910390fd5b5b50505050565b606061120a82611432565b611240576040517fa14c4b5000000000000000000000000000000000000000000000000000000000815260040160405180910390fd5b600061124a612006565b905060008151141561126b5760405180602001604052806000815250611296565b8061127584612098565b604051602001611286929190612f56565b6040516020818303038152906040525b915050919050565b60006112a9826121bc565b9050919050565b6000600760008473ffffffffffffffffffffffffffffffffffffffff1673ffffffffffffffffffffffffffffffffffffffff16815260200190815260200160002060008373ffffffffffffffffffffffffffffffffffffffff1673ffffffffffffffffffffffffffffffffffffffff16815260200190815260200160002060009054906101000a900460ff16905092915050565b61134c6119f5565b600073ffffffffffffffffffffffffffffffffffffffff168173ffffffffffffffffffffffffffffffffffffffff1614156113bc576040517f08c379a00000000000000000000000000000000000000000000000000000000081526004016113b39061309b565b60405180910390fd5b6113c581611cfe565b50565b60007f01ffc9a7000000000000000000000000000000000000000000000000000000007bffffffffffffffffffffffffffffffffffffffffffffffffffffffff1916827bffffffffffffffffffffffffffffffffffffffffffffffffffffffff1916149050919050565b60008161143d61153a565b1115801561144c575060005482105b8015611479575060046000838152602001908152602001600020600001601c9054906101000a900460ff16155b9050919050565b600033905090565b826006600084815260200190815260200160002060006101000a81548173ffffffffffffffffffffffffffffffffffffffff021916908373ffffffffffffffffffffffffffffffffffffffff160217905550818373ffffffffffffffffffffffffffffffffffffffff168273ffffffffffffffffffffffffffffffffffffffff167f8c5be1e5ebec7d5bd14f71427d1e84f3dd0314c0f7b2291e5b200ac8c7c3b92560405160405180910390a4505050565b600090565b600061154a82611a73565b90508373ffffffffffffffffffffffffffffffffffffffff16816000015173ffffffffffffffffffffffffffffffffffffffff16146115b5576040517fa114810000000000000000000000000000000000000000000000000000000000815260040160405180910390fd5b60008473ffffffffffffffffffffffffffffffffffffffff166115d6611480565b73ffffffffffffffffffffffffffffffffffffffff1614806116055750611604856115ff611480565b6112b0565b5b8061164a5750611613611480565b73ffffffffffffffffffffffffffffffffffffffff16611632846107e7565b73ffffffffffffffffffffffffffffffffffffffff16145b905080611683576040517f59c896be00000000000000000000000000000000000000000000000000000000815260040160405180910390fd5b600073ffffffffffffffffffffffffffffffffffffffff168473ffffffffffffffffffffffffffffffffffffffff1614156116ea576040517fea553b3400000000000000000000000000000000000000000000000000000000815260040160405180910390fd5b6116f78585856001612226565b61170360008487611488565b6001600560008773ffffffffffffffffffffffffffffffffffffffff1673ffffffffffffffffffffffffffffffffffffffff16815260200190815260200160002060000160008282829054906101000a900467ffffffffffffffff160392506101000a81548167ffffffffffffffff021916908367ffffffffffffffff1602179055506001600560008673ffffffffffffffffffffffffffffffffffffffff1673ffffffffffffffffffffffffffffffffffffffff16815260200190815260200160002060000160008282829054906101000a900467ffffffffffffffff160192506101000a81548167ffffffffffffffff021916908367ffffffffffffffff1602179055506000600460008581526020019081526020016000209050848160000160006101000a81548173ffffffffffffffffffffffffffffffffffffffff021916908373ffffffffffffffffffffffffffffffffffffffff160217905550428160000160146101000a81548167ffffffffffffffff021916908367ffffffffffffffff16021790555060006001850190506000600460008381526020019081526020016000209050600073ffffffffffffffffffffffffffffffffffffffff168160000160009054906101000a900473ffffffffffffffffffffffffffffffffffffffff1673ffffffffffffffffffffffffffffffffffffffff16141561198357600054821461198257878160000160006101000a81548173ffffffffffffffffffffffffffffffffffffffff021916908373ffffffffffffffffffffffffffffffffffffffff16021790555084602001518160000160146101000a81548167ffffffffffffffff021916908367ffffffffffffffff1602179055505b5b505050828473ffffffffffffffffffffffffffffffffffffffff168673ffffffffffffffffffffffffffffffffffffffff167fddf252ad1be2c89b69c2b068fc378daa952ba7f163c4a11628f55a4df523b3ef60405160405180910390a46119ee858585600161222c565b5050505050565b6119fd611480565b73ffffffffffffffffffffffffffffffffffffffff16611a1b610d15565b73ffffffffffffffffffffffffffffffffffffffff1614611a71576040517f08c379a0000000000000000000000000000000000000000000000000000000008152600401611a689061313b565b60405180910390fd5b565b611a7b6128b1565b600082905080611a8961153a565b11611cc757600054811015611cc6576000600460008381526020019081526020016000206040518060600160405290816000820160009054906101000a900473ffffffffffffffffffffffffffffffffffffffff1673ffffffffffffffffffffffffffffffffffffffff1673ffffffffffffffffffffffffffffffffffffffff1681526020016000820160149054906101000a900467ffffffffffffffff1667ffffffffffffffff1667ffffffffffffffff16815260200160008201601c9054906101000a900460ff16151515158152505090508060400151611cc457600073ffffffffffffffffffffffffffffffffffffffff16816000015173ffffffffffffffffffffffffffffffffffffffff1614611ba8578092505050611cf9565b5b600115611cc357818060019003925050600460008381526020019081526020016000206040518060600160405290816000820160009054906101000a900473ffffffffffffffffffffffffffffffffffffffff1673ffffffffffffffffffffffffffffffffffffffff1673ffffffffffffffffffffffffffffffffffffffff1681526020016000820160149054906101000a900467ffffffffffffffff1667ffffffffffffffff1667ffffffffffffffff16815260200160008201601c9054906101000a900460ff1615151515815250509050600073ffffffffffffffffffffffffffffffffffffffff16816000015173ffffffffffffffffffffffffffffffffffffffff1614611cbe578092505050611cf9565b611ba9565b5b505b5b6040517fdf2d9b4200000000000000000000000000000000000000000000000000000000815260040160405180910390fd5b919050565b6000600860009054906101000a900473ffffffffffffffffffffffffffffffffffffffff16905081600860006101000a81548173ffffffffffffffffffffffffffffffffffffffff021916908373ffffffffffffffffffffffffffffffffffffffff1602179055508173ffffffffffffffffffffffffffffffffffffffff168173ffffffffffffffffffffffffffffffffffffffff167f8be0079c531659141344cd1fd0a4f28419497f9722a3daafe3b4186f6b6457e060405160405180910390a35050565b611dde828260405180602001604052806000815250612232565b5050565b80341015611e25576040517f08c379a0000000000000000000000000000000000000000000000000000000008152600401611e1c9061317b565b60405180910390fd5b80341115611e80573373ffffffffffffffffffffffffffffffffffffffff166108fc8234611e53919061330a565b9081150290604051600060405180830381858888f19350505050158015611e7e573d6000803e3d6000fd5b505b50565b6000808273ffffffffffffffffffffffffffffffffffffffff163b119050919050565b60008373ffffffffffffffffffffffffffffffffffffffff1663150b7a02611ecc611480565b8786866040518563ffffffff1660e01b8152600401611eee9493929190612faa565b602060405180830381600087803b158015611f0857600080fd5b505af1925050508015611f3957506040513d601f19601f82011682018060405250810190611f369190612c4f565b60015b611fb3573d8060008114611f69576040519150601f19603f3d011682016040523d82523d6000602084013e611f6e565b606091505b50600081511415611fab576040517fd1a57ed600000000000000000000000000000000000000000000000000000000815260040160405180910390fd5b805181602001fd5b63150b7a0260e01b7bffffffffffffffffffffffffffffffffffffffffffffffffffffffff1916817bffffffffffffffffffffffffffffffffffffffffffffffffffffffff191614915050949350505050565b6060600980546120159061342b565b80601f01602080910402602001604051908101604052809291908181526020018280546120419061342b565b801561208e5780601f106120635761010080835404028352916020019161208e565b820191906000526020600020905b81548152906001019060200180831161207157829003601f168201915b5050505050905090565b6060600060016120a7846125f4565b01905060008167ffffffffffffffff8111156120ec577f4e487b7100000000000000000000000000000000000000000000000000000000600052604160045260246000fd5b6040519080825280601f01601f19166020018201604052801561211e5781602001600182028036833780820191505090505b509050600082602001820190505b6001156121b1578080600190039150507f3031323334353637383961626364656600000000000000000000000000000000600a86061a8153600a858161219b577f4e487b7100000000000000000000000000000000000000000000000000000000600052601260045260246000fd5b04945060008514156121ac576121b1565b61212c565b819350505050919050565b6000600560008373ffffffffffffffffffffffffffffffffffffffff1673ffffffffffffffffffffffffffffffffffffffff16815260200190815260200160002060000160089054906101000a900467ffffffffffffffff1667ffffffffffffffff169050919050565b50505050565b50505050565b600080549050600073ffffffffffffffffffffffffffffffffffffffff168473ffffffffffffffffffffffffffffffffffffffff16141561229f576040517f2e07630000000000000000000000000000000000000000000000000000000000815260040160405180910390fd5b60008314156122da576040517fb562e8dd00000000000000000000000000000000000000000000000000000000815260040160405180910390fd5b6122e76000858386612226565b82600560008673ffffffffffffffffffffffffffffffffffffffff1673ffffffffffffffffffffffffffffffffffffffff16815260200190815260200160002060000160008282829054906101000a900467ffffffffffffffff160192506101000a81548167ffffffffffffffff021916908367ffffffffffffffff16021790555082600560008673ffffffffffffffffffffffffffffffffffffffff1673ffffffffffffffffffffffffffffffffffffffff16815260200190815260200160002060000160088282829054906101000a900467ffffffffffffffff160192506101000a81548167ffffffffffffffff021916908367ffffffffffffffff160217905550836004600083815260200190815260200160002060000160006101000a81548173ffffffffffffffffffffffffffffffffffffffff021916908373ffffffffffffffffffffffffffffffffffffffff160217905550426004600083815260200190815260200160002060000160146101000a81548167ffffffffffffffff021916908367ffffffffffffffff1602179055506000819050600084820190506124a88673ffffffffffffffffffffffffffffffffffffffff16611e83565b1561256d575b818673ffffffffffffffffffffffffffffffffffffffff16600073ffffffffffffffffffffffffffffffffffffffff167fddf252ad1be2c89b69c2b068fc378daa952ba7f163c4a11628f55a4df523b3ef60405160405180910390a461251d6000878480600101955087611ea6565b612553576040517fd1a57ed600000000000000000000000000000000000000000000000000000000815260040160405180910390fd5b8082106124ae57826000541461256857600080fd5b6125d8565b5b818060010192508673ffffffffffffffffffffffffffffffffffffffff16600073ffffffffffffffffffffffffffffffffffffffff167fddf252ad1be2c89b69c2b068fc378daa952ba7f163c4a11628f55a4df523b3ef60405160405180910390a480821061256e575b8160008190555050506125ee600085838661222c565b50505050565b600080600090507a184f03e93ff9f4daa797ed6e38ed64bf6a1f0100000000000000008310612678577a184f03e93ff9f4daa797ed6e38ed64bf6a1f010000000000000000838161266e577f4e487b7100000000000000000000000000000000000000000000000000000000600052601260045260246000fd5b0492506040810190505b6d04ee2d6d415b85acef810000000083106126db576d04ee2d6d415b85acef810000000083816126d1577f4e487b7100000000000000000000000000000000000000000000000000000000600052601260045260246000fd5b0492506020810190505b662386f26fc10000831061273057662386f26fc100008381612726577f4e487b7100000000000000000000000000000000000000000000000000000000600052601260045260246000fd5b0492506010810190505b6305f5e100831061277f576305f5e1008381612775577f4e487b7100000000000000000000000000000000000000000000000000000000600052601260045260246000fd5b0492506008810190505b61271083106127ca5761271083816127c0577f4e487b7100000000000000000000000000000000000000000000000000000000600052601260045260246000fd5b0492506004810190505b606483106128135760648381612809577f4e487b7100000000000000000000000000000000000000000000000000000000600052601260045260246000fd5b0492506002810190505b600a8310612822576001810190505b80915050919050565b8280546128379061342b565b90600052602060002090601f01602090048101928261285957600085556128a0565b82601f1061287257803560ff19168380011785556128a0565b828001600101855582156128a0579182015b8281111561289f578235825591602001919060010190612884565b5b5090506128ad91906128f4565b5090565b6040518060600160405280600073ffffffffffffffffffffffffffffffffffffffff168152602001600067ffffffffffffffff1681526020016000151581525090565b5b8082111561290d5760008160009055506001016128f5565b5090565b600061292461291f846131db565b6131b6565b90508281526020810184848401111561293c57600080fd5b6129478482856133e9565b509392505050565b60008135905061295e81613706565b92915050565b6000813590506129738161371d565b92915050565b60008135905061298881613734565b92915050565b60008135905061299d8161374b565b92915050565b6000815190506129b28161374b565b92915050565b600082601f8301126129c957600080fd5b81356129d9848260208601612911565b91505092915050565b6000813590506129f181613762565b92915050565b60008083601f840112612a0957600080fd5b8235905067ffffffffffffffff811115612a2257600080fd5b602083019150836001820283011115612a3a57600080fd5b9250929050565b600081359050612a5081613772565b92915050565b600060208284031215612a6857600080fd5b6000612a768482850161294f565b91505092915050565b600060208284031215612a9157600080fd5b6000612a9f84828501612964565b91505092915050565b60008060408385031215612abb57600080fd5b6000612ac98582860161294f565b9250506020612ada8582860161294f565b9150509250929050565b600080600060608486031215612af957600080fd5b6000612b078682870161294f565b9350506020612b188682870161294f565b9250506040612b2986828701612a41565b9150509250925092565b60008060008060808587031215612b4957600080fd5b6000612b578782880161294f565b9450506020612b688782880161294f565b9350506040612b7987828801612a41565b925050606085013567ffffffffffffffff811115612b9657600080fd5b612ba2878288016129b8565b91505092959194509250565b60008060408385031215612bc157600080fd5b6000612bcf8582860161294f565b9250506020612be085828601612979565b9150509250929050565b60008060408385031215612bfd57600080fd5b6000612c0b8582860161294f565b9250506020612c1c85828601612a41565b9150509250929050565b600060208284031215612c3857600080fd5b6000612c468482850161298e565b91505092915050565b600060208284031215612c6157600080fd5b6000612c6f848285016129a3565b91505092915050565b600060208284031215612c8a57600080fd5b6000612c98848285016129e2565b91505092915050565b60008060208385031215612cb457600080fd5b600083013567ffffffffffffffff811115612cce57600080fd5b612cda858286016129f7565b92509250509250929050565b600060208284031215612cf857600080fd5b6000612d0684828501612a41565b91505092915050565b612d188161333e565b82525050565b612d2781613362565b82525050565b6000612d388261320c565b612d428185613222565b9350612d528185602086016133f8565b612d5b8161354a565b840191505092915050565b612d6f816133d7565b82525050565b6000612d81838561323e565b9350612d8e8385846133e9565b612d978361354a565b840190509392505050565b6000612dad82613217565b612db7818561323e565b9350612dc78185602086016133f8565b612dd08161354a565b840191505092915050565b6000612de682613217565b612df0818561324f565b9350612e008185602086016133f8565b80840191505092915050565b6000612e1960268361323e565b9150612e248261355b565b604082019050919050565b6000612e3c600d8361323e565b9150612e47826135aa565b602082019050919050565b6000612e5f60198361323e565b9150612e6a826135d3565b602082019050919050565b6000612e8260158361323e565b9150612e8d826135fc565b602082019050919050565b6000612ea560298361323e565b9150612eb082613625565b604082019050919050565b6000612ec860208361323e565b9150612ed382613674565b602082019050919050565b6000612eeb60128361323e565b9150612ef68261369d565b602082019050919050565b6000612f0e600083613233565b9150612f19826136c6565b600082019050919050565b6000612f3160148361323e565b9150612f3c826136c9565b602082019050919050565b612f50816133cd565b82525050565b6000612f628285612ddb565b9150612f6e8284612ddb565b91508190509392505050565b6000612f8582612f01565b9150819050919050565b6000602082019050612fa46000830184612d0f565b92915050565b6000608082019050612fbf6000830187612d0f565b612fcc6020830186612d0f565b612fd96040830185612f47565b8181036060830152612feb8184612d2d565b905095945050505050565b600060408201905061300b6000830185612d0f565b6130186020830184612f47565b9392505050565b60006020820190506130346000830184612d1e565b92915050565b600060208201905061304f6000830184612d66565b92915050565b60006020820190508181036000830152613070818486612d75565b90509392505050565b600060208201905081810360008301526130938184612da2565b905092915050565b600060208201905081810360008301526130b481612e0c565b9050919050565b600060208201905081810360008301526130d481612e2f565b9050919050565b600060208201905081810360008301526130f481612e52565b9050919050565b6000602082019050818103600083015261311481612e75565b9050919050565b6000602082019050818103600083015261313481612e98565b9050919050565b6000602082019050818103600083015261315481612ebb565b9050919050565b6000602082019050818103600083015261317481612ede565b9050919050565b6000602082019050818103600083015261319481612f24565b9050919050565b60006020820190506131b06000830184612f47565b92915050565b60006131c06131d1565b90506131cc828261345d565b919050565b6000604051905090565b600067ffffffffffffffff8211156131f6576131f561351b565b5b6131ff8261354a565b9050602081019050919050565b600081519050919050565b600081519050919050565b600082825260208201905092915050565b600081905092915050565b600082825260208201905092915050565b600081905092915050565b6000613265826133cd565b9150613270836133cd565b9250827fffffffffffffffffffffffffffffffffffffffffffffffffffffffffffffffff038211156132a5576132a461348e565b5b828201905092915050565b60006132bb826133cd565b91506132c6836133cd565b9250817fffffffffffffffffffffffffffffffffffffffffffffffffffffffffffffffff04831182151516156132ff576132fe61348e565b5b828202905092915050565b6000613315826133cd565b9150613320836133cd565b9250828210156133335761333261348e565b5b828203905092915050565b6000613349826133ad565b9050919050565b600061335b826133ad565b9050919050565b60008115159050919050565b60007fffffffff0000000000000000000000000000000000000000000000000000000082169050919050565b60008190506133a8826136f2565b919050565b600073ffffffffffffffffffffffffffffffffffffffff82169050919050565b6000819050919050565b60006133e28261339a565b9050919050565b82818337600083830152505050565b60005b838110156134165780820151818401526020810190506133fb565b83811115613425576000848401525b50505050565b6000600282049050600182168061344357607f821691505b60208210811415613457576134566134ec565b5b50919050565b6134668261354a565b810181811067ffffffffffffffff821117156134855761348461351b565b5b80604052505050565b7f4e487b7100000000000000000000000000000000000000000000000000000000600052601160045260246000fd5b7f4e487b7100000000000000000000000000000000000000000000000000000000600052602160045260246000fd5b7f4e487b7100000000000000000000000000000000000000000000000000000000600052602260045260246000fd5b7f4e487b7100000000000000000000000000000000000000000000000000000000600052604160045260246000fd5b6000601f19601f8301169050919050565b7f4f776e61626c653a206e6577206f776e657220697320746865207a65726f206160008201527f6464726573730000000000000000000000000000000000000000000000000000602082015250565b7f6e6f742073746172746564202e00000000000000000000000000000000000000600082015250565b7f4e756d626572206f66206d696e74656420657863656564732e00000000000000600082015250565b7f546f74616c20737570706c7920657863656564732e0000000000000000000000600082015250565b7f636f6e74726163742061646472657373206973206e6f7420616c6c6f7765642060008201527f746f206d696e74202e0000000000000000000000000000000000000000000000602082015250565b7f4f776e61626c653a2063616c6c6572206973206e6f7420746865206f776e6572600082015250565b7f6661696c656420746f2077697468647261770000000000000000000000000000600082015250565b50565b7f7072696365206973206e6f7420656e6f7567682e000000000000000000000000600082015250565b60038110613703576137026134bd565b5b50565b61370f8161333e565b811461371a57600080fd5b50565b61372681613350565b811461373157600080fd5b50565b61373d81613362565b811461374857600080fd5b50565b6137548161336e565b811461375f57600080fd5b50565b6003811061376f57600080fd5b50565b61377b816133cd565b811461378657600080fd5b5056fea26469706673582212209f057ac1a23f22ac3c9184cf46c7203774b8befa54e8d85e9e4251007dd4c6cd64736f6c63430008040033",
  "linkReferences": {},
  "deployedLinkReferences": {}
}